{
  "contractName": "Eleicao",
  "abi": [
    {
      "constant": true,
      "inputs": [],
      "name": "contagemDeTarefas",
      "outputs": [
        {
          "name": "",
          "type": "uint256"
        }
      ],
      "payable": false,
      "stateMutability": "view",
      "type": "function",
      "signature": "0x57505028"
    },
    {
      "constant": true,
      "inputs": [
        {
          "name": "",
          "type": "address"
        }
      ],
      "name": "eleitores",
      "outputs": [
        {
          "name": "",
          "type": "bool"
        }
      ],
      "payable": false,
      "stateMutability": "view",
      "type": "function",
      "signature": "0x783b34fa"
    },
    {
      "constant": true,
      "inputs": [],
      "name": "contagemDeCandidatos",
      "outputs": [
        {
          "name": "",
          "type": "uint256"
        }
      ],
      "payable": false,
      "stateMutability": "view",
      "type": "function",
      "signature": "0x7c2fc8dd"
    },
    {
      "constant": true,
      "inputs": [
        {
          "name": "",
          "type": "uint256"
        }
      ],
      "name": "candidatos",
      "outputs": [
        {
          "name": "id",
          "type": "uint256"
        },
        {
          "name": "nome",
          "type": "string"
        },
        {
          "name": "votos",
          "type": "uint128"
        }
      ],
      "payable": false,
      "stateMutability": "view",
      "type": "function",
      "signature": "0x8f023f85"
    },
    {
      "inputs": [],
      "payable": false,
      "stateMutability": "nonpayable",
      "type": "constructor",
      "signature": "constructor"
    },
    {
      "anonymous": false,
      "inputs": [
        {
          "indexed": true,
          "name": "candidato_id",
          "type": "uint256"
        }
      ],
      "name": "votoEfetivado",
      "type": "event",
      "signature": "0x073917538604c6820fbb327ca0bdfac65556ad1c9cb5a07340fb175b48a0f49c"
    },
    {
      "constant": false,
      "inputs": [
        {
          "name": "candidato_id",
          "type": "uint256"
        }
      ],
      "name": "votar",
      "outputs": [],
      "payable": false,
      "stateMutability": "nonpayable",
      "type": "function",
      "signature": "0x21606831"
    }
  ],
  "bytecode": "0x60806040526000805534801561001457600080fd5b506100626040805190810160405280600c81526020017f43616e64696461746f20556d00000000000000000000000000000000000000008152506100b4640100000000026401000000009004565b6100af6040805190810160405280600e81526020017f43616e64696461746f20446f69730000000000000000000000000000000000008152506100b4640100000000026401000000009004565b61021d565b600360008154809291906001019190505550606060405190810160405280600354815260200182815260200160006fffffffffffffffffffffffffffffffff16815250600160006003548152602001908152602001600020600082015181600001556020820151816001019080519060200190610132929190610178565b5060408201518160020160006101000a8154816fffffffffffffffffffffffffffffffff02191690836fffffffffffffffffffffffffffffffff16021790555090505050565b828054600181600116156101000203166002900490600052602060002090601f016020900481019282601f106101b957805160ff19168380011785556101e7565b828001600101855582156101e7579182015b828111156101e65782518255916020019190600101906101cb565b5b5090506101f491906101f8565b5090565b61021a91905b808211156102165760008160009055506001016101fe565b5090565b90565b6104f98061022c6000396000f3fe60806040526004361061006d576000357c0100000000000000000000000000000000000000000000000000000000900463ffffffff168063216068311461007257806357505028146100ad578063783b34fa146100d85780637c2fc8dd146101415780638f023f851461016c575b600080fd5b34801561007e57600080fd5b506100ab6004803603602081101561009557600080fd5b8101908080359060200190929190505050610252565b005b3480156100b957600080fd5b506100c26103c3565b6040518082815260200191505060405180910390f35b3480156100e457600080fd5b50610127600480360360208110156100fb57600080fd5b81019080803573ffffffffffffffffffffffffffffffffffffffff1690602001909291905050506103c9565b604051808215151515815260200191505060405180910390f35b34801561014d57600080fd5b506101566103e9565b6040518082815260200191505060405180910390f35b34801561017857600080fd5b506101a56004803603602081101561018f57600080fd5b81019080803590602001909291905050506103ef565b6040518084815260200180602001836fffffffffffffffffffffffffffffffff166fffffffffffffffffffffffffffffffff168152602001828103825284818151815260200191508051906020019080838360005b838110156102155780820151818401526020810190506101fa565b50505050905090810190601f1680156102425780820380516001836020036101000a031916815260200191505b5094505050505060405180910390f35b600260003373ffffffffffffffffffffffffffffffffffffffff1673ffffffffffffffffffffffffffffffffffffffff16815260200190815260200160002060009054906101000a900460ff161515156102ab57600080fd5b6000811180156102bd57506003548111155b15156102c857600080fd5b6001600260003373ffffffffffffffffffffffffffffffffffffffff1673ffffffffffffffffffffffffffffffffffffffff16815260200190815260200160002060006101000a81548160ff02191690831515021790555060016000828152602001908152602001600020600201600081819054906101000a90046fffffffffffffffffffffffffffffffff168092919060010191906101000a8154816fffffffffffffffffffffffffffffffff02191690836fffffffffffffffffffffffffffffffff16021790555050807f073917538604c6820fbb327ca0bdfac65556ad1c9cb5a07340fb175b48a0f49c60405160405180910390a250565b60005481565b60026020528060005260406000206000915054906101000a900460ff1681565b60035481565b6001602052806000526040600020600091509050806000015490806001018054600181600116156101000203166002900480601f0160208091040260200160405190810160405280929190818152602001828054600181600116156101000203166002900480156104a15780601f10610476576101008083540402835291602001916104a1565b820191906000526020600020905b81548152906001019060200180831161048457829003601f168201915b5050505050908060020160009054906101000a90046fffffffffffffffffffffffffffffffff1690508356fea165627a7a72305820c7bb737a2ce5bc94646013911a3011ca791b20b7af814dba77efd5cf09f8b6f80029",
  "source": "pragma solidity ^0.5.0;\n\ncontract Eleicao {\n\tuint public contagemDeTarefas = 0;\n\n\tstruct Candidato {\n\t\tuint id;\n\t\tstring nome;\n\t\tuint128 votos;\n\t}\n\n\tevent votoEfetivado (uint indexed candidato_id);\n\n\tmapping(uint => Candidato) public candidatos;\n\n\tmapping(address => bool) public eleitores;\n\n\tuint public contagemDeCandidatos;\n\n\tfunction criarCandidato(string memory nome) private {\n\t\tcontagemDeCandidatos ++;\n\t\tcandidatos[contagemDeCandidatos] = Candidato(contagemDeCandidatos, nome, 0);\n\t}\n\n\tconstructor() public {\n\t\tcriarCandidato('Candidato Um');\n\t\tcriarCandidato('Candidato Dois');\n\t}\n\n\tfunction votar (uint candidato_id) public {\n\t\trequire(!eleitores[msg.sender]);\n\t\trequire(candidato_id > 0 && candidato_id <= contagemDeCandidatos);\n\t\teleitores[msg.sender] = true;\n\t\tcandidatos[candidato_id].votos ++;\n\n\t\temit votoEfetivado(candidato_id);\n\t}\n\n}\n",
  "sourcePath": "/home/votacao/contracts/Eleicao.sol",
  "compiler": {
    "name": "solc",
    "version": "0.5.0+commit.1d4f565a.Emscripten.clang"
  },
  "schemaVersion": "3.0.1",
  "updatedAt": "2020-03-02T22:54:23.887Z",
  "devdoc": {
    "methods": {}
  },
  "userdoc": {
    "methods": {}
  }
}